{
  "contractName": "PhptStake",
  "abi": [
    {
      "inputs": [
        {
          "internalType": "contract PhilippinePesoTether",
          "name": "_phpt",
          "type": "address"
        }
      ],
      "stateMutability": "nonpayable",
      "type": "constructor"
    },
    {
      "inputs": [
        {
          "internalType": "address",
          "name": "",
          "type": "address"
        }
      ],
      "name": "hasStaked",
      "outputs": [
        {
          "internalType": "bool",
          "name": "",
          "type": "bool"
        }
      ],
      "stateMutability": "view",
      "type": "function"
    },
    {
      "inputs": [
        {
          "internalType": "address",
          "name": "",
          "type": "address"
        }
      ],
      "name": "isStaked",
      "outputs": [
        {
          "internalType": "bool",
          "name": "",
          "type": "bool"
        }
      ],
      "stateMutability": "view",
      "type": "function"
    },
    {
      "inputs": [],
      "name": "name",
      "outputs": [
        {
          "internalType": "string",
          "name": "",
          "type": "string"
        }
      ],
      "stateMutability": "view",
      "type": "function"
    },
    {
      "inputs": [],
      "name": "owner",
      "outputs": [
        {
          "internalType": "address",
          "name": "",
          "type": "address"
        }
      ],
      "stateMutability": "view",
      "type": "function"
    },
    {
      "inputs": [],
      "name": "phpt",
      "outputs": [
        {
          "internalType": "contract PhilippinePesoTether",
          "name": "",
          "type": "address"
        }
      ],
      "stateMutability": "view",
      "type": "function"
    },
    {
      "inputs": [
        {
          "internalType": "uint256",
          "name": "",
          "type": "uint256"
        }
      ],
      "name": "stakers",
      "outputs": [
        {
          "internalType": "address",
          "name": "",
          "type": "address"
        }
      ],
      "stateMutability": "view",
      "type": "function"
    },
    {
      "inputs": [
        {
          "internalType": "address",
          "name": "",
          "type": "address"
        }
      ],
      "name": "stakingBalance",
      "outputs": [
        {
          "internalType": "uint256",
          "name": "",
          "type": "uint256"
        }
      ],
      "stateMutability": "view",
      "type": "function"
    },
    {
      "inputs": [
        {
          "internalType": "uint256",
          "name": "amount",
          "type": "uint256"
        }
      ],
      "name": "depositPhpt",
      "outputs": [],
      "stateMutability": "nonpayable",
      "type": "function"
    }
  ],
  "bytecode": "0x60806040526040518060400160405280600a81526020017f50687074205374616b6500000000000000000000000000000000000000000000815250600090816200004a919062000346565b503480156200005857600080fd5b5060405162000fd438038062000fd483398181016040528101906200007e9190620004ab565b80600260006101000a81548173ffffffffffffffffffffffffffffffffffffffff021916908373ffffffffffffffffffffffffffffffffffffffff16021790555050620004dd565b600081519050919050565b7f4e487b7100000000000000000000000000000000000000000000000000000000600052604160045260246000fd5b7f4e487b7100000000000000000000000000000000000000000000000000000000600052602260045260246000fd5b600060028204905060018216806200014857607f821691505b6020821081036200015e576200015d62000100565b5b50919050565b60008190508160005260206000209050919050565b60006020601f8301049050919050565b60008160020a8302905092915050565b600060088302620001cb7fffffffffffffffffffffffffffffffffffffffffffffffffffffffffffffffff8262000189565b620001d7868362000189565b95508019841693508086168417925050509392505050565b6000819050919050565b6000819050919050565b6000620002246200021e6200021884620001ef565b620001f9565b620001ef565b9050919050565b6000819050919050565b620002408362000203565b620002586200024f826200022b565b84845462000199565b825550505050565b600090565b6200026f62000260565b6200027c81848462000235565b505050565b5b81811015620002a4576200029860008262000265565b60018101905062000282565b5050565b601f821115620002f357620002bd8162000164565b620002c88462000179565b81016020851015620002d8578190505b620002f0620002e78562000179565b83018262000281565b50505b505050565b60008160020a8304905092915050565b60006200031b60001984600802620002f8565b1980831691505092915050565b600062000336838362000308565b9150826002028217905092915050565b6200035182620000c6565b67ffffffffffffffff8111156200036d576200036c620000d1565b5b6200037982546200012f565b62000386828285620002a8565b600060209050601f831160018114620003be5760008415620003a9578287015190505b620003b5858262000328565b86555062000425565b601f198416620003ce8662000164565b60005b82811015620003f857848901518255600182019150602085019450602081019050620003d1565b8683101562000418578489015162000414601f89168262000308565b8355505b6001600288020188555050505b505050505050565b600080fd5b600073ffffffffffffffffffffffffffffffffffffffff82169050919050565b60006200045f8262000432565b9050919050565b6000620004738262000452565b9050919050565b620004858162000466565b81146200049157600080fd5b50565b600081519050620004a5816200047a565b92915050565b600060208284031215620004c457620004c36200042d565b5b6000620004d48482850162000494565b91505092915050565b610ae780620004ed6000396000f3fe608060405234801561001057600080fd5b50600436106100a5576000357c0100000000000000000000000000000000000000000000000000000000900480638da5cb5b116100785780638da5cb5b14610144578063c93c8f3414610162578063f9be101c14610192578063fd5e6dd1146101b0576100a5565b806306ad41ea146100aa57806306fdde03146100c657806345bc78ab146100e45780636177fd1814610114575b600080fd5b6100c460048036038101906100bf9190610684565b6101e0565b005b6100ce6104d8565b6040516100db9190610741565b60405180910390f35b6100fe60048036038101906100f991906107c1565b610566565b60405161010b91906107fd565b60405180910390f35b61012e600480360381019061012991906107c1565b61057e565b60405161013b9190610833565b60405180910390f35b61014c61059e565b604051610159919061085d565b60405180910390f35b61017c600480360381019061017791906107c1565b6105c4565b6040516101899190610833565b60405180910390f35b61019a6105e4565b6040516101a791906108d7565b60405180910390f35b6101ca60048036038101906101c59190610684565b61060a565b6040516101d7919061085d565b60405180910390f35b60008111610223576040517f08c379a000000000000000000000000000000000000000000000000000000000815260040161021a9061093e565b60405180910390fd5b600260009054906101000a900473ffffffffffffffffffffffffffffffffffffffff1673ffffffffffffffffffffffffffffffffffffffff166323b872dd3330846040518463ffffffff167c010000000000000000000000000000000000000000000000000000000002815260040161029e9392919061095e565b6020604051808303816000875af11580156102bd573d6000803e3d6000fd5b505050506040513d601f19601f820116820180604052508101906102e191906109c1565b5080600460003373ffffffffffffffffffffffffffffffffffffffff1673ffffffffffffffffffffffffffffffffffffffff1681526020019081526020016000205461032d9190610a1d565b600460003373ffffffffffffffffffffffffffffffffffffffff1673ffffffffffffffffffffffffffffffffffffffff16815260200190815260200160002081905550600560003373ffffffffffffffffffffffffffffffffffffffff1673ffffffffffffffffffffffffffffffffffffffff16815260200190815260200160002060009054906101000a900460ff16610425576003339080600181540180825580915050600190039060005260206000200160009091909190916101000a81548173ffffffffffffffffffffffffffffffffffffffff021916908373ffffffffffffffffffffffffffffffffffffffff1602179055505b6001600660003373ffffffffffffffffffffffffffffffffffffffff1673ffffffffffffffffffffffffffffffffffffffff16815260200190815260200160002060006101000a81548160ff0219169083151502179055506001600560003373ffffffffffffffffffffffffffffffffffffffff1673ffffffffffffffffffffffffffffffffffffffff16815260200190815260200160002060006101000a81548160ff02191690831515021790555050565b600080546104e590610a80565b80601f016020809104026020016040519081016040528092919081815260200182805461051190610a80565b801561055e5780601f106105335761010080835404028352916020019161055e565b820191906000526020600020905b81548152906001019060200180831161054157829003601f168201915b505050505081565b60046020528060005260406000206000915090505481565b60066020528060005260406000206000915054906101000a900460ff1681565b600160009054906101000a900473ffffffffffffffffffffffffffffffffffffffff1681565b60056020528060005260406000206000915054906101000a900460ff1681565b600260009054906101000a900473ffffffffffffffffffffffffffffffffffffffff1681565b6003818154811061061a57600080fd5b906000526020600020016000915054906101000a900473ffffffffffffffffffffffffffffffffffffffff1681565b600080fd5b6000819050919050565b6106618161064e565b811461066c57600080fd5b50565b60008135905061067e81610658565b92915050565b60006020828403121561069a57610699610649565b5b60006106a88482850161066f565b91505092915050565b600081519050919050565b600082825260208201905092915050565b60005b838110156106eb5780820151818401526020810190506106d0565b60008484015250505050565b6000601f19601f8301169050919050565b6000610713826106b1565b61071d81856106bc565b935061072d8185602086016106cd565b610736816106f7565b840191505092915050565b6000602082019050818103600083015261075b8184610708565b905092915050565b600073ffffffffffffffffffffffffffffffffffffffff82169050919050565b600061078e82610763565b9050919050565b61079e81610783565b81146107a957600080fd5b50565b6000813590506107bb81610795565b92915050565b6000602082840312156107d7576107d6610649565b5b60006107e5848285016107ac565b91505092915050565b6107f78161064e565b82525050565b600060208201905061081260008301846107ee565b92915050565b60008115159050919050565b61082d81610818565b82525050565b60006020820190506108486000830184610824565b92915050565b61085781610783565b82525050565b6000602082019050610872600083018461084e565b92915050565b6000819050919050565b600061089d61089861089384610763565b610878565b610763565b9050919050565b60006108af82610882565b9050919050565b60006108c1826108a4565b9050919050565b6108d1816108b6565b82525050565b60006020820190506108ec60008301846108c8565b92915050565b7f616d6f756e74206d7573742062652067726561746572207468616e207a65726f600082015250565b60006109286020836106bc565b9150610933826108f2565b602082019050919050565b600060208201905081810360008301526109578161091b565b9050919050565b6000606082019050610973600083018661084e565b610980602083018561084e565b61098d60408301846107ee565b949350505050565b61099e81610818565b81146109a957600080fd5b50565b6000815190506109bb81610995565b92915050565b6000602082840312156109d7576109d6610649565b5b60006109e5848285016109ac565b91505092915050565b7f4e487b7100000000000000000000000000000000000000000000000000000000600052601160045260246000fd5b6000610a288261064e565b9150610a338361064e565b9250828201905080821115610a4b57610a4a6109ee565b5b92915050565b7f4e487b7100000000000000000000000000000000000000000000000000000000600052602260045260246000fd5b60006002820490506001821680610a9857607f821691505b602082108103610aab57610aaa610a51565b5b5091905056fea2646970667358221220431300313b7d53c24fdb059ed64aa838cba329a496cef9d7a0e2db64ea75aef464736f6c63430008110033",
  "immutableReferences": {},
  "source": "pragma solidity >=0.4.22 <0.9.0;\n\nimport './PhilippinePesoTether.sol';\n\ncontract PhptStake {\n    string public name = 'Phpt Stake';\n    address public owner;\n    PhilippinePesoTether public phpt;\n    address[] public stakers;\n    mapping(address => uint256) public stakingBalance;\n    mapping(address => bool) public hasStaked;\n    mapping(address => bool) public isStaked;\n\n    constructor(PhilippinePesoTether _phpt) {\n        phpt = _phpt;\n    }\n\n    function depositPhpt(uint256 amount) public {\n        require(amount > 0, 'amount must be greater than zero');\n        //transfer tether tokens to this contract address for staking\n        phpt.transferFrom(msg.sender, address(this), amount);\n        //Update staking balance\n        stakingBalance[msg.sender] = stakingBalance[msg.sender] + amount;\n\n        //determine if hasStaked\n        if(!hasStaked[msg.sender]) {\n            stakers.push(msg.sender);\n        }\n        //update staking balance\n        isStaked[msg.sender] = true;\n        hasStaked[msg.sender] = true;\n    }\n\n}\n\n",
  "sourcePath": "/home/jay/projects/PhilippinePesoTether/contracts/PhptStake.sol",
  "compiler": {
    "name": "solc",
    "version": "0.8.17+commit.8df45f5f.Emscripten.clang"
  },
  "schemaVersion": "3.4.10",
  "updatedAt": "2022-10-04T02:20:32.094Z",
  "devdoc": {
    "kind": "dev",
    "methods": {},
    "version": 1
  },
  "userdoc": {
    "kind": "user",
    "methods": {},
    "version": 1
  }
}